:1000000012C02AC029C028C074C026C025C024C080
:1000100023C022C021C020C01FC01EC01DC01CC0E4
:100020001BC01AC019C011241FBECFEDCDBF10E0F8
:10003000A0E6B0E0E4E1F5E002C005900D92AC3836
:10004000B107D9F710E0ACE8B0E001C01D92A23BC7
:10005000B107E1F716D05CC2D3CF84E688BB8BE949
:1000600087BB82B3836082BB81B3826381BB80E83C
:1000700088B985B78F7785BF089580E489BF789464
:100080000895EBDF80E489BF789407D083E03CD10A
:10009000C098C198FDD1DDD1FDCF82E08093A00052
:1000A0008FEF8093A1001092A20010928C0010920A
:1000B000950010929F0080EB8FBD20ED31E039BD9F
:1000C00028BD28B539B53BBD2ABD1DBC1CBC8FBDA4
:1000D00089E08EBD12BC89B7806489BF089581E034
:1000E00080939F00089510929F00089580919F0033
:1000F00008951F920F920FB60F9211242F933F93E2
:100100004F935F936F937F938F939F93AF93BF931F
:10011000EF93FF93B39903C080EE8FBDE4C080914D
:100120009500823009F469C0833030F4882371F07F
:10013000813009F0D8C056C0843009F4A9C0843099
:1001400008F489C0853009F0CEC0C1C080918C0010
:10015000882351F4A0E9B0E0E0EAF0E085E0019006
:100160000D928150E1F709C0A0E9B0E0E5EAF0E0C6
:1001700085E001900D928150E1F78091910090917E
:100180009200A0919300B091940080939600909378
:100190009700A0939800B09399008091900080936D
:1001A0009B0010929A0010929E00B19902C08FE0BD
:1001B00001C086E180939C0081E08093950080914E
:1001C0008C00882309F48FC080918C00815080932B
:1001D0008C0080918C00882309F085C080E690E037
:1001E000E4D081C080EB8FBD80ED91E099BD88BDEA
:1001F00088B599B59BBD8ABD42C080EB8FBD80EAB2
:1002000093E099BD88BD88B599B59BBD8ABD909195
:100210009B0080919E00992339F480939D0088E093
:1002200080939C0084E050C0915090939B0020915B
:100230009A00E22FF0E0EB56FF4F918190939D00E2
:100240002F5F20939A00892780939E0088E08093F7
:100250009C0083E039C080919D0090EB9FBD87FF9B
:1002600003C020ED31E002C020EA33E039BD28BDF3
:1002700028B539B53BBD2ABD880F80939D0080917C
:100280009C00815080939C00882369F582E01CC00B
:1002900080919D0090EB9FBD87FF03C020ED31E072
:1002A00002C020EA33E039BD28BD28B539B53BBDD1
:1002B0002ABD880F80939D0080919C00815080937F
:1002C0009C00882381F485E0809395000CC080EB2E
:1002D0008FBD80ED91E099BD88BD88B599B59BBD76
:1002E0008ABD10929500FF91EF91BF91AF919F91C0
:1002F0008F917F916F915F914F913F912F910F90CF
:100300000FBE0F901F9018952FB7F8948093AA00F6
:10031000823009F1833028F4882399F0813039F450
:1003200015C0843011F18430D8F0863029F080EC8B
:100330008BB98FEC90E01DC080EC8BB987E690E024
:1003400018C080EC8BB983E390E013C080EC8BB9CC
:1003500089E190E00EC080EC8BB98CE090E009C0A0
:1003600082EC8BB980E190E004C082EC8BB988E02C
:1003700090E012B889B91AB888E18AB986E083B9E1
:100380008CB15F99FDCF5F9A5E9A8CB1C7982FBFF1
:1003900008955F9B04C08CB19BB19C7109F080E013
:1003A00008955D9BFECF8CB90895FC01C79A03C0E8
:1003B0005D9BFECF8CB981918823D1F7C7980895B2
:1003C00080918E00882309F443C0C79A8091AB00C6
:1003D000843419F08335D9F515C08091AC00809331
:1003E000A500EDEAF0E0A6EAB0E090E08E0F9F1FD6
:1003F00002C021912D93E817F907D9F781E0809386
:100400008C0025C08091AC00823539F480918C003D
:10041000882319F484E690E0C8DF8091AC00803333
:1004200011F4C09A0FC0813311F4C0980BC082330D
:1004300011F4C19A07C0833311F4C19803C0843307
:1004400009F44DDE8091AC00853309F44CDEC79889
:1004500008959FDF8823D9F090918D008A3269F04A
:10046000E92FF0E0E555FF4F80839F5F90938D006B
:10047000973068F010928D000895E92FF0E0E5556F
:10048000FF4F108290938E0010928D0099DF089597
:10049000B59912C0C098959A88E690E086DF8FEFF4
:1004A0009EE9A4E281509040A040E1F700C0000026
:1004B00095988EE690E079DFB69912C0C198949A2B
:1004C00084E790E072DF8FEF9EE9A4E281509040D4
:1004D000A040E1F700C0000094988AE790E065DF53
:1004E000B2990AC080918F00882331F481E0809313
:1004F0008F0080E890E059DFB29B09C080918F00A7
:10050000882329F010928F0086E890E04EDF08954E
:04051000F894FFCF8D
:1005140053522A0053522A004D5453312A004D5449
:1005240053302A00505453312A00505453302A0077
:0C05340041434B312A0041434B302A0068
:00000001FF
